{
  "contractName": "HealthCare",
  "abi": [
    {
      "constant": true,
      "inputs": [
        {
          "name": "",
          "type": "uint256"
        },
        {
          "name": "",
          "type": "uint256"
        }
      ],
      "name": "reports",
      "outputs": [
        {
          "name": "data1",
          "type": "uint256"
        },
        {
          "name": "data2",
          "type": "uint256"
        },
        {
          "name": "data3",
          "type": "uint256"
        }
      ],
      "payable": false,
      "stateMutability": "view",
      "type": "function"
    },
    {
      "constant": false,
      "inputs": [
        {
          "name": "id",
          "type": "uint256"
        },
        {
          "name": "data1",
          "type": "uint256"
        },
        {
          "name": "data2",
          "type": "uint256"
        },
        {
          "name": "data3",
          "type": "uint256"
        }
      ],
      "name": "createReport",
      "outputs": [],
      "payable": false,
      "stateMutability": "nonpayable",
      "type": "function"
    },
    {
      "constant": true,
      "inputs": [
        {
          "name": "id",
          "type": "uint256"
        }
      ],
      "name": "getReports",
      "outputs": [
        {
          "name": "",
          "type": "uint256[]"
        },
        {
          "name": "",
          "type": "uint256[]"
        },
        {
          "name": "",
          "type": "uint256[]"
        }
      ],
      "payable": false,
      "stateMutability": "view",
      "type": "function"
    },
    {
      "constant": false,
      "inputs": [
        {
          "name": "patientAddress",
          "type": "string"
        },
        {
          "name": "uid",
          "type": "uint256"
        }
      ],
      "name": "addAccident",
      "outputs": [],
      "payable": false,
      "stateMutability": "nonpayable",
      "type": "function"
    },
    {
      "constant": true,
      "inputs": [
        {
          "name": "patientAddress",
          "type": "string"
        }
      ],
      "name": "getUIDS",
      "outputs": [
        {
          "name": "",
          "type": "uint256[]"
        }
      ],
      "payable": false,
      "stateMutability": "view",
      "type": "function"
    }
  ],
  "bytecode": "0x608060405234801561001057600080fd5b506107e6806100206000396000f30060806040526004361061006d576000357c0100000000000000000000000000000000000000000000000000000000900463ffffffff1680632d283db51461007257806359052381146100cb578063593e8dd3146101895780636ccdb778146101d4578063c220c0da146102e6575b600080fd5b34801561007e57600080fd5b506100a76004803603810190808035906020019092919080359060200190929190505050610359565b60405180848152602001838152602001828152602001935050505060405180910390f35b3480156100d757600080fd5b50610132600480360381019080803590602001908201803590602001908080601f016020809104026020016040519081016040528093929190818152602001838380828437820191505050505050919291929050505061039f565b6040518080602001828103825283818151815260200191508051906020019060200280838360005b8381101561017557808201518184015260208101905061015a565b505050509050019250505060405180910390f35b34801561019557600080fd5b506101d260048036038101908080359060200190929190803590602001909291908035906020019092919080359060200190929190505050610462565b005b3480156101e057600080fd5b506101ff600480360381019080803590602001909291905050506104e2565b60405180806020018060200180602001848103845287818151815260200191508051906020019060200280838360005b8381101561024a57808201518184015260208101905061022f565b50505050905001848103835286818151815260200191508051906020019060200280838360005b8381101561028c578082015181840152602081019050610271565b50505050905001848103825285818151815260200191508051906020019060200280838360005b838110156102ce5780820151818401526020810190506102b3565b50505050905001965050505050505060405180910390f35b3480156102f257600080fd5b50610357600480360381019080803590602001908201803590602001908080601f016020809104026020016040519081016040528093929190818152602001838380828437820191505050505050919291929080359060200190929190505050610721565b005b60006020528160005260406000208181548110151561037457fe5b9060005260206000209060030201600091509150508060000154908060010154908060020154905083565b60606001826040518082805190602001908083835b6020831015156103d957805182526020820191506020810190506020830392506103b4565b6001836020036101000a038019825116818451168082178552505050505050905001915050908152602001604051809103902080548060200260200160405190810160405280929190818152602001828054801561045657602002820191906000526020600020905b815481526020019060010190808311610442575b50505050509050919050565b600080858152602001908152602001600020606060405190810160405280858152602001848152602001838152509080600181540180825580915050906001820390600052602060002090600302016000909192909190915060008201518160000155602082015181600101556040820151816002015550505050505050565b606080606060008090505b60038110156106175760026000808781526020019081526020016000208281548110151561051757fe5b906000526020600020906003020160000154908060018154018082558091505090600182039060005260206000200160009091929091909150555060036000808781526020019081526020016000208281548110151561057357fe5b90600052602060002090600302016001015490806001815401808255809150509060018203906000526020600020016000909192909190915055506004600080878152602001908152602001600020828154811015156105cf57fe5b906000526020600020906003020160020154908060018154018082558091505090600182039060005260206000200160009091929091909150555080806001019150506104ed565b6002600360048280548060200260200160405190810160405280929190818152602001828054801561066857602002820191906000526020600020905b815481526020019060010190808311610654575b50505050509250818054806020026020016040519081016040528092919081815260200182805480156106ba57602002820191906000526020600020905b8154815260200190600101908083116106a6575b505050505091508080548060200260200160405190810160405280929190818152602001828054801561070c57602002820191906000526020600020905b8154815260200190600101908083116106f8575b50505050509050935093509350509193909250565b6001826040518082805190602001908083835b6020831015156107595780518252602082019150602081019050602083039250610734565b6001836020036101000a038019825116818451168082178552505050505050905001915050908152602001604051809103902081908060018154018082558091505090600182039060005260206000200160009091929091909150555050505600a165627a7a723058200de1cd184589f598729c89f27649c3c982e508774db661d192446dd296c054600029",
  "source": "pragma solidity ^0.4.2;\r\n\r\ncontract HealthCare {\r\n    struct Report {\r\n        uint data1;\r\n        uint data2;\r\n        uint data3;\r\n    }\r\n    \r\n\r\n    mapping(uint => Report[]) public reports;\r\n    mapping(string => uint[]) patientData;\r\n\r\n    function createReport(uint id, uint data1, uint data2, uint data3) public {\r\n        reports[id].push(Report(data1, data2, data3));\r\n    }\r\n\r\n    uint[] data1Array;\r\n    uint[] data2Array;\r\n    uint[] data3Array;\r\n    function getReports(uint id) public view returns (uint[], uint[], uint[]) {\r\n        for(uint i = 0; i < 3; i++) {\r\n            data1Array.push(reports[id][i].data1);\r\n            data2Array.push(reports[id][i].data2);\r\n            data3Array.push(reports[id][i].data3);\r\n        }\r\n        return (data1Array, data2Array, data3Array);\r\n    }\r\n\r\n    function addAccident(string patientAddress, uint uid) public {\r\n        patientData[patientAddress].push(uid);\r\n    }\r\n\r\n    function getUIDS(string patientAddress) public view returns (uint[]) {\r\n        return patientData[patientAddress];\r\n    }\r\n}\r\n",
  "sourcePath": "C:\\Users\\dhruv\\Desktop\\hashhack\\contracts\\HealthCare.sol",
  "compiler": {
    "name": "solc",
    "version": "0.4.24+commit.e67f0147.Emscripten.clang"
  },
  "schemaVersion": "2.0.1",
  "updatedAt": "2018-10-27T03:28:58.478Z"
}